{
  "contractName": "RequestScheduleLib",
  "abi": [
    {
      "constant": true,
      "inputs": [
        {
          "name": "self",
          "type": "RequestScheduleLib.ExecutionWindow storage"
        }
      ],
      "name": "getNow",
      "outputs": [
        {
          "name": "",
          "type": "uint256"
        }
      ],
      "payable": false,
      "stateMutability": "view",
      "type": "function"
    },
    {
      "constant": true,
      "inputs": [
        {
          "name": "_reservedWindowSize",
          "type": "uint256"
        },
        {
          "name": "_windowSize",
          "type": "uint256"
        }
      ],
      "name": "validateReservedWindowSize",
      "outputs": [
        {
          "name": "",
          "type": "bool"
        }
      ],
      "payable": false,
      "stateMutability": "pure",
      "type": "function"
    },
    {
      "constant": true,
      "inputs": [
        {
          "name": "_temporalUnit",
          "type": "RequestScheduleLib.TemporalUnit"
        },
        {
          "name": "_freezePeriod",
          "type": "uint256"
        },
        {
          "name": "_windowStart",
          "type": "uint256"
        }
      ],
      "name": "validateWindowStart",
      "outputs": [
        {
          "name": "",
          "type": "bool"
        }
      ],
      "payable": false,
      "stateMutability": "view",
      "type": "function"
    },
    {
      "constant": true,
      "inputs": [
        {
          "name": "_temporalUnitAsUInt",
          "type": "uint256"
        }
      ],
      "name": "validateTemporalUnit",
      "outputs": [
        {
          "name": "",
          "type": "bool"
        }
      ],
      "payable": false,
      "stateMutability": "pure",
      "type": "function"
    }
  ],
  "bytecode": "0x6102bf610030600b82828239805160001a6073146000811461002057610022565bfe5b5030600052607381538281f3007300000000000000000000000000000000000000003014608060405260043610610079576000357c0100000000000000000000000000000000000000000000000000000000900463ffffffff1680631a26ed1c1461007e5780632e898ddc146100c05780633c57ec9c146100f8578063683c3b8b14610147575b600080fd5b6100a6600480360381019080803590602001909291908035906020019092919050505061017b565b604051808215151515815260200191505060405180910390f35b6100de60048036038101908080359060200190929190505050610189565b604051808215151515815260200191505060405180910390f35b61012d600480360381019080803560ff16906020019092919080359060200190929190803590602001909291905050506101cd565b604051808215151515815260200191505060405180910390f35b610165600480360381019080803590602001909291905050506101f6565b6040518082815260200191505060405180910390f35b600081831115905092915050565b600080600281111561019757fe5b82141580156101c65750600160028111156101ae57fe5b8214806101c557506002808111156101c257fe5b82145b5b9050919050565b6000816101eb846101dd87610219565b61027290919063ffffffff16565b111590509392505050565b60006102128260000160009054906101000a900460ff16610219565b9050919050565b600060028081111561022757fe5b82600281111561023357fe5b14156102415742905061026d565b6001600281111561024e57fe5b82600281111561025a57fe5b14156102685743905061026d565b600080fd5b919050565b600080828401905083811015151561028957600080fd5b80915050929150505600a165627a7a72305820d9d9472948f0410d501a2a7919a664bc69e4804641e2f7c59a4f67b25bac5cf30029",
  "source": "pragma solidity 0.4.24;\n\nimport \"contracts/zeppelin/SafeMath.sol\";\n\n/**\n * @title RequestScheduleLib\n * @dev Library containing the logic for request scheduling.\n */\nlibrary RequestScheduleLib {\n    using SafeMath for uint;\n\n    /**\n     * The manner in which this schedule specifies time.\n     *\n     * Null: present to require this value be explicitely specified\n     * Blocks: execution schedule determined by block.number\n     * Timestamp: execution schedule determined by block.timestamp\n     */\n    enum TemporalUnit {\n        Null,           // 0\n        Blocks,         // 1\n        Timestamp       // 2\n    }\n\n    struct ExecutionWindow {\n\n        TemporalUnit temporalUnit;      /// The type of unit used to measure time.\n\n        uint windowStart;               /// The starting point in temporal units from which the transaction can be executed.\n\n        uint windowSize;                /// The length in temporal units of the execution time period.\n\n        uint freezePeriod;              /// The length in temporal units before the windowStart where no activity is allowed.\n\n        uint reservedWindowSize;        /// The length in temporal units at the beginning of the executionWindow in which only the claim address can execute.\n\n        uint claimWindowSize;           /// The length in temporal units before the freezeperiod in which an address can claim the execution.\n    }\n\n    /**\n     * @dev Get the `now` represented in the temporal units assigned to this request.\n     * @param self The ExecutionWindow object.\n     * @return The unsigned integer representation of `now` in appropiate temporal units.\n     */\n    function getNow(ExecutionWindow storage self) \n        public view returns (uint)\n    {\n        return _getNow(self.temporalUnit);\n    }\n\n    /**\n     * @dev Internal function to return the `now` based on the appropiate temporal units.\n     * @param _temporalUnit The assigned TemporalUnit to this transaction.\n     */\n    function _getNow(TemporalUnit _temporalUnit) \n        internal view returns (uint)\n    {\n        if (_temporalUnit == TemporalUnit.Timestamp) {\n            return block.timestamp;\n        } \n        if (_temporalUnit == TemporalUnit.Blocks) {\n            return block.number;\n        }\n        /// Only reaches here if the unit is unset, unspecified or unsupported.\n        revert();\n    }\n\n    /**\n     * @dev The modifier that will be applied to the bounty value depending\n     * on when a call was claimed.\n     */\n    function computePaymentModifier(ExecutionWindow storage self) \n        internal view returns (uint8)\n    {        \n        uint paymentModifier = (getNow(self).sub(firstClaimBlock(self)))\n            .mul(100)\n            .div(self.claimWindowSize); \n        assert(paymentModifier <= 100); \n\n        return uint8(paymentModifier);\n    }\n\n    /*\n     *  Helper: computes the end of the execution window.\n     */\n    function windowEnd(ExecutionWindow storage self)\n        internal view returns (uint)\n    {\n        return self.windowStart.add(self.windowSize);\n    }\n\n    /*\n     *  Helper: computes the end of the reserved portion of the execution\n     *  window.\n     */\n    function reservedWindowEnd(ExecutionWindow storage self)\n        internal view returns (uint)\n    {\n        return self.windowStart.add(self.reservedWindowSize);\n    }\n\n    /*\n     *  Helper: computes the time when the request will be frozen until execution.\n     */\n    function freezeStart(ExecutionWindow storage self) \n        internal view returns (uint)\n    {\n        return self.windowStart.sub(self.freezePeriod);\n    }\n\n    /*\n     *  Helper: computes the time when the request will be frozen until execution.\n     */\n    function firstClaimBlock(ExecutionWindow storage self) \n        internal view returns (uint)\n    {\n        return freezeStart(self).sub(self.claimWindowSize);\n    }\n\n    /*\n     *  Helper: Returns boolean if we are before the execution window.\n     */\n    function isBeforeWindow(ExecutionWindow storage self)\n        internal view returns (bool)\n    {\n        return getNow(self) < self.windowStart;\n    }\n\n    /*\n     *  Helper: Returns boolean if we are after the execution window.\n     */\n    function isAfterWindow(ExecutionWindow storage self) \n        internal view returns (bool)\n    {\n        return getNow(self) > windowEnd(self);\n    }\n\n    /*\n     *  Helper: Returns boolean if we are inside the execution window.\n     */\n    function inWindow(ExecutionWindow storage self)\n        internal view returns (bool)\n    {\n        return self.windowStart <= getNow(self) && getNow(self) < windowEnd(self);\n    }\n\n    /*\n     *  Helper: Returns boolean if we are inside the reserved portion of the\n     *  execution window.\n     */\n    function inReservedWindow(ExecutionWindow storage self)\n        internal view returns (bool)\n    {\n        return self.windowStart <= getNow(self) && getNow(self) < reservedWindowEnd(self);\n    }\n\n    /*\n     * @dev Helper: Returns boolean if we are inside the claim window.\n     */\n    function inClaimWindow(ExecutionWindow storage self) \n        internal view returns (bool)\n    {\n        /// Checks that the firstClaimBlock is in the past or now.\n        /// Checks that now is before the start of the freezePeriod.\n        return firstClaimBlock(self) <= getNow(self) && getNow(self) < freezeStart(self);\n    }\n\n    /*\n     *  Helper: Returns boolean if we are before the freeze period.\n     */\n    function isBeforeFreeze(ExecutionWindow storage self) \n        internal view returns (bool)\n    {\n        return getNow(self) < freezeStart(self);\n    }\n\n    /*\n     *  Helper: Returns boolean if we are before the claim window.\n     */\n    function isBeforeClaimWindow(ExecutionWindow storage self)\n        internal view returns (bool)\n    {\n        return getNow(self) < firstClaimBlock(self);\n    }\n\n    ///---------------\n    /// VALIDATION\n    ///---------------\n\n    /**\n     * @dev Validation: Ensure that the reservedWindowSize is less than or equal to the windowSize.\n     * @param _reservedWindowSize The size of the reserved window.\n     * @param _windowSize The size of the execution window.\n     * @return True if the reservedWindowSize is within the windowSize.\n     */\n    function validateReservedWindowSize(uint _reservedWindowSize, uint _windowSize)\n        public pure returns (bool)\n    {\n        return _reservedWindowSize <= _windowSize;\n    }\n\n    /**\n     * @dev Validation: Ensure that the startWindow is at least freezePeriod amount of time in the future.\n     * @param _temporalUnit The temporalUnit of this request.\n     * @param _freezePeriod The freezePeriod in temporal units.\n     * @param _windowStart The time in the future which represents the start of the execution window.\n     * @return True if the windowStart is at least freezePeriod amount of time in the future.\n     */\n    function validateWindowStart(TemporalUnit _temporalUnit, uint _freezePeriod, uint _windowStart) \n        public view returns (bool)\n    {\n        return _getNow(_temporalUnit).add(_freezePeriod) <= _windowStart;\n    }\n\n    /*\n     *  Validation: ensure that the temporal unit passed in is constrained to 0 or 1\n     */\n    function validateTemporalUnit(uint _temporalUnitAsUInt) \n        public pure returns (bool)\n    {\n        return (_temporalUnitAsUInt != uint(TemporalUnit.Null) &&\n            (_temporalUnitAsUInt == uint(TemporalUnit.Blocks) ||\n            _temporalUnitAsUInt == uint(TemporalUnit.Timestamp))\n        );\n    }\n}\n",
  "sourcePath": "contracts/Library/RequestScheduleLib.sol",
  "compiler": {
    "name": "solc",
    "version": "0.4.24+commit.e67f0147.Emscripten.clang"
  },
  "schemaVersion": "2.0.1",
  "updatedAt": "2018-08-13T11:09:09.645Z"
}