{
  "contractName": "TransactionRequestCore",
  "abi": [
    {
      "constant": true,
      "inputs": [],
      "name": "factory",
      "outputs": [
        {
          "name": "",
          "type": "address"
        }
      ],
      "payable": false,
      "stateMutability": "view",
      "type": "function"
    },
    {
      "payable": true,
      "stateMutability": "payable",
      "type": "fallback"
    },
    {
      "anonymous": false,
      "inputs": [
        {
          "indexed": false,
          "name": "reason",
          "type": "uint8"
        }
      ],
      "name": "Aborted",
      "type": "event"
    },
    {
      "anonymous": false,
      "inputs": [
        {
          "indexed": false,
          "name": "rewardPayment",
          "type": "uint256"
        },
        {
          "indexed": false,
          "name": "measuredGasConsumption",
          "type": "uint256"
        }
      ],
      "name": "Cancelled",
      "type": "event"
    },
    {
      "anonymous": false,
      "inputs": [],
      "name": "Claimed",
      "type": "event"
    },
    {
      "anonymous": false,
      "inputs": [
        {
          "indexed": false,
          "name": "bounty",
          "type": "uint256"
        },
        {
          "indexed": false,
          "name": "fee",
          "type": "uint256"
        },
        {
          "indexed": false,
          "name": "measuredGasConsumption",
          "type": "uint256"
        }
      ],
      "name": "Executed",
      "type": "event"
    },
    {
      "constant": false,
      "inputs": [
        {
          "name": "addressArgs",
          "type": "address[4]"
        },
        {
          "name": "uintArgs",
          "type": "uint256[12]"
        },
        {
          "name": "callData",
          "type": "bytes"
        },
        {
          "name": "requestFactory",
          "type": "address"
        }
      ],
      "name": "initialize",
      "outputs": [],
      "payable": true,
      "stateMutability": "payable",
      "type": "function"
    },
    {
      "constant": false,
      "inputs": [],
      "name": "execute",
      "outputs": [
        {
          "name": "",
          "type": "bool"
        }
      ],
      "payable": false,
      "stateMutability": "nonpayable",
      "type": "function"
    },
    {
      "constant": false,
      "inputs": [],
      "name": "cancel",
      "outputs": [
        {
          "name": "",
          "type": "bool"
        }
      ],
      "payable": false,
      "stateMutability": "nonpayable",
      "type": "function"
    },
    {
      "constant": false,
      "inputs": [],
      "name": "claim",
      "outputs": [
        {
          "name": "",
          "type": "bool"
        }
      ],
      "payable": true,
      "stateMutability": "payable",
      "type": "function"
    },
    {
      "constant": true,
      "inputs": [],
      "name": "requestData",
      "outputs": [
        {
          "name": "",
          "type": "address[6]"
        },
        {
          "name": "",
          "type": "bool[3]"
        },
        {
          "name": "",
          "type": "uint256[15]"
        },
        {
          "name": "",
          "type": "uint8[1]"
        }
      ],
      "payable": false,
      "stateMutability": "view",
      "type": "function"
    },
    {
      "constant": true,
      "inputs": [],
      "name": "callData",
      "outputs": [
        {
          "name": "data",
          "type": "bytes"
        }
      ],
      "payable": false,
      "stateMutability": "view",
      "type": "function"
    },
    {
      "constant": false,
      "inputs": [
        {
          "name": "_to",
          "type": "address"
        },
        {
          "name": "_data",
          "type": "bytes"
        }
      ],
      "name": "proxy",
      "outputs": [
        {
          "name": "success",
          "type": "bool"
        }
      ],
      "payable": true,
      "stateMutability": "payable",
      "type": "function"
    },
    {
      "constant": false,
      "inputs": [],
      "name": "refundClaimDeposit",
      "outputs": [
        {
          "name": "",
          "type": "bool"
        }
      ],
      "payable": false,
      "stateMutability": "nonpayable",
      "type": "function"
    },
    {
      "constant": false,
      "inputs": [],
      "name": "sendFee",
      "outputs": [
        {
          "name": "",
          "type": "bool"
        }
      ],
      "payable": false,
      "stateMutability": "nonpayable",
      "type": "function"
    },
    {
      "constant": false,
      "inputs": [],
      "name": "sendBounty",
      "outputs": [
        {
          "name": "",
          "type": "bool"
        }
      ],
      "payable": false,
      "stateMutability": "nonpayable",
      "type": "function"
    },
    {
      "constant": false,
      "inputs": [
        {
          "name": "recipient",
          "type": "address"
        }
      ],
      "name": "sendOwnerEther",
      "outputs": [
        {
          "name": "",
          "type": "bool"
        }
      ],
      "payable": false,
      "stateMutability": "nonpayable",
      "type": "function"
    },
    {
      "constant": false,
      "inputs": [],
      "name": "sendOwnerEther",
      "outputs": [
        {
          "name": "",
          "type": "bool"
        }
      ],
      "payable": false,
      "stateMutability": "nonpayable",
      "type": "function"
    }
  ],
  "bytecode": "0x60806040526000601760006101000a81548160ff02191690831515021790555034801561002b57600080fd5b506121fc8061003b6000396000f3006080604052600436106100c5576000357c0100000000000000000000000000000000000000000000000000000000900463ffffffff1680633e50b0b8146100c75780634bb89c4d146101225780634e417a98146101515780634e71d92d146101e1578063606deecd1461020357806361461954146102e35780636949a05814610312578063a7c9112814610341578063ae39279f1461041c578063b311ee0c1461044b578063be6d055a1461047a578063c45a01551461050e578063ea8a1af014610565575b005b3480156100d357600080fd5b50610108600480360381019080803573ffffffffffffffffffffffffffffffffffffffff169060200190929190505050610594565b604051808215151515815260200191505060405180910390f35b34801561012e57600080fd5b50610137610679565b604051808215151515815260200191505060405180910390f35b34801561015d57600080fd5b50610166610728565b6040518080602001828103825283818151815260200191508051906020019080838360005b838110156101a657808201518184015260208101905061018b565b50505050905090810190601f1680156101d35780820380516001836020036101000a031916815260200191505b509250505060405180910390f35b6101e96107cf565b604051808215151515815260200191505060405180910390f35b34801561020f57600080fd5b506102186108b2565b6040518085600660200280838360005b83811015610243578082015181840152602081019050610228565b5050505090500184600360200280838360005b83811015610271578082015181840152602081019050610256565b5050505090500183600f60200280838360005b8381101561029f578082015181840152602081019050610284565b5050505090500182600160200280838360005b838110156102cd5780820151818401526020810190506102b2565b5050505090500194505050505060405180910390f35b3480156102ef57600080fd5b506102f86108ea565b604051808215151515815260200191505060405180910390f35b34801561031e57600080fd5b506103276109cd565b604051808215151515815260200191505060405180910390f35b61041a6004803603810190808060800190600480602002604051908101604052809291908260046020028082843782019150505050509192919290806101800190600c806020026040519081016040528092919082600c6020028082843782019150505050509192919290803590602001908201803590602001908080601f0160208091040260200160405190810160405280939291908181526020018383808284378201915050505050509192919290803573ffffffffffffffffffffffffffffffffffffffff169060200190929190505050610a7c565b005b34801561042857600080fd5b50610431610c71565b604051808215151515815260200191505060405180910390f35b34801561045757600080fd5b50610460610d20565b604051808215151515815260200191505060405180910390f35b6104f4600480360381019080803573ffffffffffffffffffffffffffffffffffffffff169060200190929190803590602001908201803590602001908080601f0160208091040260200160405190810160405280939291908181526020018383808284378201915050505050509192919290505050610dce565b604051808215151515815260200191505060405180910390f35b34801561051a57600080fd5b50610523610ed7565b604051808273ffffffffffffffffffffffffffffffffffffffff1673ffffffffffffffffffffffffffffffffffffffff16815260200191505060405180910390f35b34801561057157600080fd5b5061057a610efd565b604051808215151515815260200191505060405180910390f35b60008073__RequestLib____________________________63d81b530c9091846040518363ffffffff167c0100000000000000000000000000000000000000000000000000000000028152600401808381526020018273ffffffffffffffffffffffffffffffffffffffff1673ffffffffffffffffffffffffffffffffffffffff1681526020019250505060206040518083038186803b15801561063757600080fd5b505af415801561064b573d6000803e3d6000fd5b505050506040513d602081101561066157600080fd5b81019080805190602001909291905050509050919050565b60008073__RequestLib____________________________63ab3b2e8190916040518263ffffffff167c01000000000000000000000000000000000000000000000000000000000281526004018082815260200191505060206040518083038186803b1580156106e857600080fd5b505af41580156106fc573d6000803e3d6000fd5b505050506040513d602081101561071257600080fd5b8101908080519060200190929190505050905090565b6060600080016001018054600181600116156101000203166002900480601f0160208091040260200160405190810160405280929190818152602001828054600181600116156101000203166002900480156107c55780601f1061079a576101008083540402835291602001916107c5565b820191906000526020600020905b8154815290600101906020018083116107a857829003601f168201915b5050505050905090565b6000801515601760019054906101000a900473ffffffffffffffffffffffffffffffffffffffff1673ffffffffffffffffffffffffffffffffffffffff16635c975abb6040518163ffffffff167c0100000000000000000000000000000000000000000000000000000000028152600401602060405180830381600087803b15801561085a57600080fd5b505af115801561086e573d6000803e3d6000fd5b505050506040513d602081101561088457600080fd5b810190808051906020019092919050505015151415156108a357600080fd5b6108ad6000610fac565b905090565b6108ba612143565b6108c2612166565b6108ca612189565b6108d26121ad565b6108dc6000611016565b935093509350935090919293565b6000801515601760019054906101000a900473ffffffffffffffffffffffffffffffffffffffff1673ffffffffffffffffffffffffffffffffffffffff16635c975abb6040518163ffffffff167c0100000000000000000000000000000000000000000000000000000000028152600401602060405180830381600087803b15801561097557600080fd5b505af1158015610989573d6000803e3d6000fd5b505050506040513d602081101561099f57600080fd5b810190808051906020019092919050505015151415156109be57600080fd5b6109c86000611409565b905090565b60008073__RequestLib____________________________634074b91c90916040518263ffffffff167c01000000000000000000000000000000000000000000000000000000000281526004018082815260200191505060206040518083038186803b158015610a3c57600080fd5b505af4158015610a50573d6000803e3d6000fd5b505050506040513d6020811015610a6657600080fd5b8101908080519060200190929190505050905090565b601760009054906101000a900460ff16151515610a9857600080fd5b80601760016101000a81548173ffffffffffffffffffffffffffffffffffffffff021916908373ffffffffffffffffffffffffffffffffffffffff160217905550600073__RequestLib____________________________638c5bebf290918686866040518563ffffffff167c01000000000000000000000000000000000000000000000000000000000281526004018085815260200184600460200280838360005b83811015610b56578082015181840152602081019050610b3b565b5050505090500183600c60200280838360005b83811015610b84578082015181840152602081019050610b69565b5050505090500180602001828103825283818151815260200191508051906020019080838360005b83811015610bc7578082015181840152602081019050610bac565b50505050905090810190601f168015610bf45780820380516001836020036101000a031916815260200191505b509550505050505060206040518083038186803b158015610c1457600080fd5b505af4158015610c28573d6000803e3d6000fd5b505050506040513d6020811015610c3e57600080fd5b8101908080519060200190929190505050506001601760006101000a81548160ff02191690831515021790555050505050565b60008073__RequestLib____________________________63f925a7d690916040518263ffffffff167c01000000000000000000000000000000000000000000000000000000000281526004018082815260200191505060206040518083038186803b158015610ce057600080fd5b505af4158015610cf4573d6000803e3d6000fd5b505050506040513d6020811015610d0a57600080fd5b8101908080519060200190929190505050905090565b60008073__RequestLib____________________________637994549a90916040518263ffffffff167c01000000000000000000000000000000000000000000000000000000000281526004018082815260200191505060206040518083038186803b158015610d8f57600080fd5b505af4158015610da3573d6000803e3d6000fd5b505050506040513d6020811015610db957600080fd5b81019080805190602001909291905050505090565b60003373ffffffffffffffffffffffffffffffffffffffff16600060050160000160009054906101000a900473ffffffffffffffffffffffffffffffffffffffff1673ffffffffffffffffffffffffffffffffffffffff16148015610e3c5750610e3b6000601101611a15565b5b1515610e4757600080fd5b8273ffffffffffffffffffffffffffffffffffffffff16348360405180828051906020019080838360005b83811015610e8d578082015181840152602081019050610e72565b50505050905090810190601f168015610eba5780820380516001836020036101000a031916815260200191505b5091505060006040518083038185875af192505050905092915050565b601760019054906101000a900473ffffffffffffffffffffffffffffffffffffffff1681565b60008073__RequestLib____________________________6332839d9890916040518263ffffffff167c01000000000000000000000000000000000000000000000000000000000281526004018082815260200191505060206040518083038186803b158015610f6c57600080fd5b505af4158015610f80573d6000803e3d6000fd5b505050506040513d6020811015610f9657600080fd5b8101908080519060200190929190505050905090565b6000610fb782611a31565b1515610fc257600080fd5b7fbcb472984264b16baa8cde752f2af002ea8ce06f35d81caee36625234edd2a4660405160405180910390a161100f610ffd83601101611aa2565b83600d01611b0990919063ffffffff16565b9050919050565b61101e612143565b611026612166565b61102e612189565b6110366121ad565b61103e612143565b611046612166565b61104e612189565b6110566121ad565b60c0604051908101604052808a600d0160000160009054906101000a900473ffffffffffffffffffffffffffffffffffffffff1673ffffffffffffffffffffffffffffffffffffffff1673ffffffffffffffffffffffffffffffffffffffff1681526020018a60050160010160009054906101000a900473ffffffffffffffffffffffffffffffffffffffff1673ffffffffffffffffffffffffffffffffffffffff1673ffffffffffffffffffffffffffffffffffffffff1681526020018a60050160000160009054906101000a900473ffffffffffffffffffffffffffffffffffffffff1673ffffffffffffffffffffffffffffffffffffffff1673ffffffffffffffffffffffffffffffffffffffff1681526020018a60070160040160009054906101000a900473ffffffffffffffffffffffffffffffffffffffff1673ffffffffffffffffffffffffffffffffffffffff1673ffffffffffffffffffffffffffffffffffffffff1681526020018a60070160010160009054906101000a900473ffffffffffffffffffffffffffffffffffffffff1673ffffffffffffffffffffffffffffffffffffffff1673ffffffffffffffffffffffffffffffffffffffff1681526020018a60000160000160009054906101000a900473ffffffffffffffffffffffffffffffffffffffff1673ffffffffffffffffffffffffffffffffffffffff1673ffffffffffffffffffffffffffffffffffffffff1681525093506060604051908101604052808a60050160010160149054906101000a900460ff161515151581526020018a60050160010160159054906101000a900460ff161515151581526020018a60050160010160169054906101000a900460ff161515151581525092506101e0604051908101604052808a600d016001015481526020018a6007016003015481526020018a6007016005015481526020018a6007016000015481526020018a6007016002015481526020018a6011016005015481526020018a6011016003015481526020018a6011016004015481526020018a60110160000160009054906101000a900460ff16600281111561137357fe5b81526020018a6011016002015481526020018a6011016001015481526020018a6000016003015481526020018a6000016002015481526020018a6000016004015481526020018a600d016002015481525091506020604051908101604052808a600d0160030160009054906101000a900460ff1660ff1660ff168152509050838383839750975097509750505050509193509193565b6000806000805a925061142f6161a861142187611b7e565b611ba490919063ffffffff16565b5a1015611488577fc008bc849b42227c61d5063a1313ce509a6e99211bfd59e827e417be6c65c81b6005600681111561146457fe5b604051808260ff1660ff16815260200191505060405180910390a160009350611a0d565b8460050160010160159054906101000a900460ff16156114f4577fc008bc849b42227c61d5063a1313ce509a6e99211bfd59e827e417be6c65c81b600160068111156114d057fe5b604051808260ff1660ff16815260200191505060405180910390a160009350611a0d565b8460050160010160149054906101000a900460ff1615611560577fc008bc849b42227c61d5063a1313ce509a6e99211bfd59e827e417be6c65c81b6000600681111561153c57fe5b604051808260ff1660ff16815260200191505060405180910390a160009350611a0d565b61156c85601101611bc0565b156115c3577fc008bc849b42227c61d5063a1313ce509a6e99211bfd59e827e417be6c65c81b6002600681111561159f57fe5b604051808260ff1660ff16815260200191505060405180910390a160009350611a0d565b6115cf85601101611a15565b15611626577fc008bc849b42227c61d5063a1313ce509a6e99211bfd59e827e417be6c65c81b6003600681111561160257fe5b604051808260ff1660ff16815260200191505060405180910390a160009350611a0d565b61163285600d01611bd8565b8015611691575084600d0160000160009054906101000a900473ffffffffffffffffffffffffffffffffffffffff1673ffffffffffffffffffffffffffffffffffffffff163373ffffffffffffffffffffffffffffffffffffffff1614155b80156116a557506116a485601101611c1f565b5b156116fc577fc008bc849b42227c61d5063a1313ce509a6e99211bfd59e827e417be6c65c81b600460068111156116d857fe5b604051808260ff1660ff16815260200191505060405180910390a160009350611a0d565b3a8560000160040154111561175c577fc008bc849b42227c61d5063a1313ce509a6e99211bfd59e827e417be6c65c81b60068081111561173857fe5b604051808260ff1660ff16815260200191505060405180910390a160009350611a0d565b60018560050160010160156101000a81548160ff02191690831515021790555061178885600001611c53565b8560050160010160166101000a81548160ff0219169083151502179055506117b285600701611d35565b156117e8576117dc85600701600501546117ce87600701611d7c565b611d8a90919063ffffffff16565b85600701600501819055505b846007016005015491506117fe85600701611dab565b50338560070160010160006101000a81548173ffffffffffffffffffffffffffffffffffffffff021916908373ffffffffffffffffffffffffffffffffffffffff16021790555061185185600d01611bd8565b156118e257611877856007016002015486600d0160010154611d8a90919063ffffffff16565b8560070160020181905550600085600d01600101819055506118d285600701600201546118c487600d0160030160009054906101000a900460ff1688600701611e3390919063ffffffff16565b611d8a90919063ffffffff16565b8560070160020181905550611913565b61190785600701600201546118f987600701611e6e565b611d8a90919063ffffffff16565b85600701600201819055505b61193b62015f9061192d5a86611ba490919063ffffffff16565b611d8a90919063ffffffff16565b90506119708560070160020154611962876000016004015484611e7c90919063ffffffff16565b611d8a90919063ffffffff16565b85600701600201819055507f3e504bb8b225ad41f613b0c3c4205cdd752d1615b4d77cd1773417282fcfb5d98560070160020154838360405180848152602001838152602001828152602001935050505060405180910390a16119d585600701611eb2565b50611a07858660050160000160009054906101000a900473ffffffffffffffffffffffffffffffffffffffff16611f3a565b50600193505b505050919050565b6000611a2082611fe0565b611a2983612004565b119050919050565b6000611a3f82600d01611bd8565b151515611a4b57600080fd5b8160050160010160149054906101000a900460ff16151515611a6c57600080fd5b611a7882601101612027565b1515611a8357600080fd5b81600d01600201543410151515611a9957600080fd5b60019050919050565b600080611af18360050154611ae36064611ad5611abe8861205f565b611ac789612004565b611ba490919063ffffffff16565b611e7c90919063ffffffff16565b61208790919063ffffffff16565b905060648111151515611b0057fe5b80915050919050565b6000338360000160006101000a81548173ffffffffffffffffffffffffffffffffffffffff021916908373ffffffffffffffffffffffffffffffffffffffff160217905550348360010181905550818360030160006101000a81548160ff021916908360ff1602179055506001905092915050565b6000611b9d6202bf208360000160030154611d8a90919063ffffffff16565b9050919050565b6000828211151515611bb557600080fd5b818303905092915050565b60008160010154611bd083612004565b109050919050565b6000808260000160009054906101000a900473ffffffffffffffffffffffffffffffffffffffff1673ffffffffffffffffffffffffffffffffffffffff1614159050919050565b6000611c2a82612004565b826001015411158015611c4c5750611c41826120a2565b611c4a83612004565b105b9050919050565b60003a826004015411151515611c6857600080fd5b8160000160009054906101000a900473ffffffffffffffffffffffffffffffffffffffff1673ffffffffffffffffffffffffffffffffffffffff168260020154836003015490846001016040518082805460018160011615610100020316600290048015611d175780601f10611cec57610100808354040283529160200191611d17565b820191906000526020600020905b815481529060010190602001808311611cfa57829003601f168201915b5050915050600060405180830381858888f193505050509050919050565b6000808260040160009054906101000a900473ffffffffffffffffffffffffffffffffffffffff1673ffffffffffffffffffffffffffffffffffffffff1614159050919050565b600081600301549050919050565b6000808284019050838110151515611da157600080fd5b8091505092915050565b600080826005015490506000811115611e2857600083600501819055508260040160009054906101000a900473ffffffffffffffffffffffffffffffffffffffff1673ffffffffffffffffffffffffffffffffffffffff166108fc829081150290604051600060405180830381858888f193505050509150611e2d565b600191505b50919050565b6000611e666064611e588460ff16611e4a87611e6e565b611e7c90919063ffffffff16565b61208790919063ffffffff16565b905092915050565b600081600001549050919050565b60008082840290506000841480611e9d5750828482811515611e9a57fe5b04145b1515611ea857600080fd5b8091505092915050565b600080826002015490506000811115611f2f57600083600201819055508260010160009054906101000a900473ffffffffffffffffffffffffffffffffffffffff1673ffffffffffffffffffffffffffffffffffffffff166108fc829081150290604051600060405180830381858888f193505050509150611f34565b600191505b50919050565b600080611fa08460070160050154611f928660070160020154611f8488600d01600101543073ffffffffffffffffffffffffffffffffffffffff1631611ba490919063ffffffff16565b611ba490919063ffffffff16565b611ba490919063ffffffff16565b90508273ffffffffffffffffffffffffffffffffffffffff166108fc829081150290604051600060405180830381858888f1935050505091505092915050565b6000611ffd82600201548360010154611d8a90919063ffffffff16565b9050919050565b60006120208260000160009054906101000a900460ff166120c6565b9050919050565b600061203282612004565b61203b8361205f565b11158015612058575061204d8261211f565b61205683612004565b105b9050919050565b600061208082600501546120728461211f565b611ba490919063ffffffff16565b9050919050565b600080828481151561209557fe5b0490508091505092915050565b60006120bf82600401548360010154611d8a90919063ffffffff16565b9050919050565b60006002808111156120d457fe5b8260028111156120e057fe5b14156120ee5742905061211a565b600160028111156120fb57fe5b82600281111561210757fe5b14156121155743905061211a565b600080fd5b919050565b600061213c82600301548360010154611ba490919063ffffffff16565b9050919050565b60c060405190810160405280600690602082028038833980820191505090505090565b606060405190810160405280600390602082028038833980820191505090505090565b6101e060405190810160405280600f90602082028038833980820191505090505090565b6020604051908101604052806001906020820280388339808201915050905050905600a165627a7a72305820fcfc2c74798000b8747324b376d50a36997b2a2c06e9b42cf528fc13c7343df90029",
  "source": "pragma solidity 0.4.24;\n\nimport \"contracts/Library/RequestLib.sol\";\nimport \"contracts/Library/RequestScheduleLib.sol\";\nimport \"contracts/Interface/TransactionRequestInterface.sol\";\n\nimport \"openzeppelin-solidity/contracts/lifecycle/Pausable.sol\";\n\ncontract TransactionRequestCore is TransactionRequestInterface {\n    using RequestLib for RequestLib.Request;\n    using RequestScheduleLib for RequestScheduleLib.ExecutionWindow;\n\n    RequestLib.Request txnRequest;\n    bool private initialized = false;\n\n    address public factory;\n\n    modifier whenFactoryNotPaused() {\n        require(Pausable(factory).paused() == false);\n        _;\n    }\n\n    /*\n     *  addressArgs[0] - meta.createdBy\n     *  addressArgs[1] - meta.owner\n     *  addressArgs[2] - paymentData.feeRecipient\n     *  addressArgs[3] - txnData.toAddress\n     *\n     *  uintArgs[0]  - paymentData.fee\n     *  uintArgs[1]  - paymentData.bounty\n     *  uintArgs[2]  - schedule.claimWindowSize\n     *  uintArgs[3]  - schedule.freezePeriod\n     *  uintArgs[4]  - schedule.reservedWindowSize\n     *  uintArgs[5]  - schedule.temporalUnit\n     *  uintArgs[6]  - schedule.windowSize\n     *  uintArgs[7]  - schedule.windowStart\n     *  uintArgs[8]  - txnData.callGas\n     *  uintArgs[9]  - txnData.callValue\n     *  uintArgs[10] - txnData.gasPrice\n     *  uintArgs[11] - claimData.requiredDeposit\n     */\n    function initialize(\n        address[4]  addressArgs,\n        uint[12]    uintArgs,\n        bytes       callData,\n        address     requestFactory\n    )\n        public payable\n    {\n        require(!initialized);\n\n        factory = requestFactory;\n        txnRequest.initialize(addressArgs, uintArgs, callData);\n        initialized = true;\n    }\n\n    /*\n     *  Allow receiving ether.  This is needed if there is a large increase in\n     *  network gas prices.\n     */\n    function() public payable {}\n\n    /*\n     *  Actions\n     */\n    function execute() whenFactoryNotPaused public returns (bool) {\n        return txnRequest.execute();\n    }\n\n    function cancel() public returns (bool) {\n        return txnRequest.cancel();\n    }\n\n    function claim() whenFactoryNotPaused public payable returns (bool) {\n        return txnRequest.claim();\n    }\n\n    /*\n     *  Data accessor functions.\n     */\n\n    // Declaring this function `view`, although it creates a compiler warning, is\n    // necessary to return values from it.\n    function requestData()\n        public view returns (address[6], bool[3], uint[15], uint8[1])\n    {\n        return txnRequest.serialize();\n    }\n\n    function callData()\n        public view returns (bytes data)\n    {\n        data = txnRequest.txnData.callData;\n    }\n\n    /**\n     * @dev Proxy a call from this contract to another contract.\n     * This function is only callable by the scheduler and can only\n     * be called after the execution window ends. One purpose is to\n     * provide a way to transfer assets held by this contract somewhere else.\n     * For example, if this request was used to buy tokens during an ICO,\n     * it would become the owner of the tokens and this function would need\n     * to be called with the encoded data to the token contract to transfer\n     * the assets somewhere else. */\n    function proxy(address _to, bytes _data)\n        public payable returns (bool success)\n    {\n        require(txnRequest.meta.owner == msg.sender && txnRequest.schedule.isAfterWindow());\n        \n        /* solium-disable-next-line */\n        return _to.call.value(msg.value)(_data);\n    }\n\n    /*\n     *  Pull based payment functions.\n     */\n    function refundClaimDeposit() public returns (bool) {\n        txnRequest.refundClaimDeposit();\n    }\n\n    function sendFee() public returns (bool) {\n        return txnRequest.sendFee();\n    }\n\n    function sendBounty() public returns (bool) {\n        return txnRequest.sendBounty();\n    }\n\n    function sendOwnerEther() public returns (bool) {\n        return txnRequest.sendOwnerEther();\n    }\n\n    function sendOwnerEther(address recipient) public returns (bool) {\n        return txnRequest.sendOwnerEther(recipient);\n    }\n\n    /** Event duplication from RequestLib.sol. This is so\n     *  that these events are available on the contracts ABI.*/\n    event Aborted(uint8 reason);\n    event Cancelled(uint rewardPayment, uint measuredGasConsumption);\n    event Claimed();\n    event Executed(uint bounty, uint fee, uint measuredGasConsumption);\n}\n",
  "sourcePath": "contracts/TransactionRequestCore.sol",
  "compiler": {
    "name": "solc",
    "version": "0.4.24+commit.e67f0147.Emscripten.clang"
  },
  "schemaVersion": "2.0.1",
  "updatedAt": "2018-08-13T11:09:09.664Z"
}